{"abi":[{"type":"constructor","inputs":[{"name":"name","type":"string","internalType":"string"},{"name":"symbol","type":"string","internalType":"string"}],"stateMutability":"nonpayable"},{"type":"function","name":"approve","inputs":[{"name":"","type":"address","internalType":"address"},{"name":"","type":"uint256","internalType":"uint256"}],"outputs":[],"stateMutability":"pure"},{"type":"function","name":"balanceOf","inputs":[{"name":"owner","type":"address","internalType":"address"}],"outputs":[{"name":"","type":"uint256","internalType":"uint256"}],"stateMutability":"view"},{"type":"function","name":"getApproved","inputs":[{"name":"tokenId","type":"uint256","internalType":"uint256"}],"outputs":[{"name":"","type":"address","internalType":"address"}],"stateMutability":"view"},{"type":"function","name":"isApprovedForAll","inputs":[{"name":"owner","type":"address","internalType":"address"},{"name":"operator","type":"address","internalType":"address"}],"outputs":[{"name":"","type":"bool","internalType":"bool"}],"stateMutability":"view"},{"type":"function","name":"issueBatchCredentials","inputs":[{"name":"recipients","type":"address[]","internalType":"address[]"},{"name":"uris","type":"string[]","internalType":"string[]"}],"outputs":[{"name":"","type":"uint256[]","internalType":"uint256[]"}],"stateMutability":"nonpayable"},{"type":"function","name":"issueCredential","inputs":[{"name":"to","type":"address","internalType":"address"},{"name":"_tokenURI","type":"string","internalType":"string"}],"outputs":[{"name":"","type":"uint256","internalType":"uint256"}],"stateMutability":"nonpayable"},{"type":"function","name":"issueSequentialCredentials","inputs":[{"name":"recipients","type":"address[]","internalType":"address[]"},{"name":"uris","type":"string[]","internalType":"string[]"}],"outputs":[{"name":"","type":"uint256[]","internalType":"uint256[]"}],"stateMutability":"nonpayable"},{"type":"function","name":"name","inputs":[],"outputs":[{"name":"","type":"string","internalType":"string"}],"stateMutability":"view"},{"type":"function","name":"owner","inputs":[],"outputs":[{"name":"","type":"address","internalType":"address"}],"stateMutability":"view"},{"type":"function","name":"ownerOf","inputs":[{"name":"tokenId","type":"uint256","internalType":"uint256"}],"outputs":[{"name":"","type":"address","internalType":"address"}],"stateMutability":"view"},{"type":"function","name":"renounceOwnership","inputs":[],"outputs":[],"stateMutability":"nonpayable"},{"type":"function","name":"safeTransferFrom","inputs":[{"name":"","type":"address","internalType":"address"},{"name":"","type":"address","internalType":"address"},{"name":"","type":"uint256","internalType":"uint256"}],"outputs":[],"stateMutability":"pure"},{"type":"function","name":"safeTransferFrom","inputs":[{"name":"","type":"address","internalType":"address"},{"name":"","type":"address","internalType":"address"},{"name":"","type":"uint256","internalType":"uint256"},{"name":"","type":"bytes","internalType":"bytes"}],"outputs":[],"stateMutability":"pure"},{"type":"function","name":"setApprovalForAll","inputs":[{"name":"","type":"address","internalType":"address"},{"name":"","type":"bool","internalType":"bool"}],"outputs":[],"stateMutability":"pure"},{"type":"function","name":"supportsInterface","inputs":[{"name":"interfaceId","type":"bytes4","internalType":"bytes4"}],"outputs":[{"name":"","type":"bool","internalType":"bool"}],"stateMutability":"view"},{"type":"function","name":"symbol","inputs":[],"outputs":[{"name":"","type":"string","internalType":"string"}],"stateMutability":"view"},{"type":"function","name":"tokenURI","inputs":[{"name":"tokenId","type":"uint256","internalType":"uint256"}],"outputs":[{"name":"","type":"string","internalType":"string"}],"stateMutability":"view"},{"type":"function","name":"transferFrom","inputs":[{"name":"","type":"address","internalType":"address"},{"name":"","type":"address","internalType":"address"},{"name":"","type":"uint256","internalType":"uint256"}],"outputs":[],"stateMutability":"pure"},{"type":"function","name":"transferOwnership","inputs":[{"name":"newOwner","type":"address","internalType":"address"}],"outputs":[],"stateMutability":"nonpayable"},{"type":"event","name":"Approval","inputs":[{"name":"owner","type":"address","indexed":true,"internalType":"address"},{"name":"approved","type":"address","indexed":true,"internalType":"address"},{"name":"tokenId","type":"uint256","indexed":true,"internalType":"uint256"}],"anonymous":false},{"type":"event","name":"ApprovalForAll","inputs":[{"name":"owner","type":"address","indexed":true,"internalType":"address"},{"name":"operator","type":"address","indexed":true,"internalType":"address"},{"name":"approved","type":"bool","indexed":false,"internalType":"bool"}],"anonymous":false},{"type":"event","name":"OwnershipTransferred","inputs":[{"name":"previousOwner","type":"address","indexed":true,"internalType":"address"},{"name":"newOwner","type":"address","indexed":true,"internalType":"address"}],"anonymous":false},{"type":"event","name":"Transfer","inputs":[{"name":"from","type":"address","indexed":true,"internalType":"address"},{"name":"to","type":"address","indexed":true,"internalType":"address"},{"name":"tokenId","type":"uint256","indexed":true,"internalType":"uint256"}],"anonymous":false}],"bytecode":{"object":"0x60806040523480156200001157600080fd5b506040516200160938038062001609833981016040819052620000349162000193565b818160006200004483826200028c565b5060016200005382826200028c565b505050620000706200006a6200007860201b60201c565b6200007c565b505062000358565b3390565b600680546001600160a01b038381166001600160a01b0319831681179093556040519116919082907f8be0079c531659141344cd1fd0a4f28419497f9722a3daafe3b4186f6b6457e090600090a35050565b634e487b7160e01b600052604160045260246000fd5b600082601f830112620000f657600080fd5b81516001600160401b0380821115620001135762000113620000ce565b604051601f8301601f19908116603f011681019082821181831017156200013e576200013e620000ce565b816040528381526020925086838588010111156200015b57600080fd5b600091505b838210156200017f578582018301518183018401529082019062000160565b600093810190920192909252949350505050565b60008060408385031215620001a757600080fd5b82516001600160401b0380821115620001bf57600080fd5b620001cd86838701620000e4565b93506020850151915080821115620001e457600080fd5b50620001f385828601620000e4565b9150509250929050565b600181811c908216806200021257607f821691505b6020821081036200023357634e487b7160e01b600052602260045260246000fd5b50919050565b601f8211156200028757600081815260208120601f850160051c81016020861015620002625750805b601f850160051c820191505b8181101562000283578281556001016200026e565b5050505b505050565b81516001600160401b03811115620002a857620002a8620000ce565b620002c081620002b98454620001fd565b8462000239565b602080601f831160018114620002f85760008415620002df5750858301515b600019600386901b1c1916600185901b17855562000283565b600085815260208120601f198616915b82811015620003295788860151825594840194600190910190840162000308565b5085821015620003485787850151600019600388901b60f8161c191681555b5050505050600190811b01905550565b6112a180620003686000396000f3fe608060405234801561001057600080fd5b50600436106101215760003560e01c8063715018a6116100ad578063af61404a11610071578063af61404a14610247578063b88d4fde1461025a578063c87b56dd14610268578063e985e9c51461027b578063f2fde38b146102b757600080fd5b8063715018a6146102055780638da5cb5b1461020d57806390c7c49c1461021e57806395d89b4114610231578063a22cb4651461023957600080fd5b80630995f359116100f45780630995f359146101a357806323b872dd146101c357806342842e0e146101c35780636352211e146101d157806370a08231146101e457600080fd5b806301ffc9a71461012657806306fdde031461014e578063081812fc14610163578063095ea7b31461018e575b600080fd5b610139610134366004610c0a565b6102ca565b60405190151581526020015b60405180910390f35b61015661031c565b6040516101459190610c3b565b610176610171366004610c89565b6103ae565b6040516001600160a01b039091168152602001610145565b6101a161019c366004610cbe565b6103d5565b005b6101b66101b1366004610e5b565b610422565b6040516101459190610f1b565b6101a161019c366004610f5f565b6101766101df366004610c89565b610582565b6101f76101f2366004610f9b565b6105e2565b604051908152602001610145565b6101a1610668565b6006546001600160a01b0316610176565b6101f761022c366004610fb6565b61067c565b6101566106c3565b6101a161019c366004610ffa565b6101b6610255366004610e5b565b6106d2565b6101a161019c366004611036565b610156610276366004610c89565b6107f2565b6101396102893660046110b2565b6001600160a01b03918216600090815260056020908152604080832093909416825291909152205460ff1690565b6101a16102c5366004610f9b565b6108eb565b60006001600160e01b031982166380ac58cd60e01b14806102fb57506001600160e01b03198216635b5e139f60e01b145b8061031657506301ffc9a760e01b6001600160e01b03198316145b92915050565b60606000805461032b906110e5565b80601f0160208091040260200160405190810160405280929190818152602001828054610357906110e5565b80156103a45780601f10610379576101008083540402835291602001916103a4565b820191906000526020600020905b81548152906001019060200180831161038757829003601f168201915b5050505050905090565b60006103b982610964565b506000908152600460205260409020546001600160a01b031690565b60405162461bcd60e51b815260206004820152601b60248201527f536f756c626f756e643a206e6f6e2d7472616e7366657261626c65000000000060448201526064015b60405180910390fd5b606061042c6109c3565b815183511461047d5760405162461bcd60e51b815260206004820152601b60248201527f417272617973206d757374206d6174636820696e206c656e67746800000000006044820152606401610419565b6000835167ffffffffffffffff81111561049957610499610ce8565b6040519080825280602002602001820160405280156104c2578160200160208202803683370190505b50905060005b845181101561057a576104df600780546001019055565b60006104ea60075490565b905061050f8683815181106105015761050161111f565b602002602001015182610a1d565b8482815181106105215761052161111f565b60200260200101516008600083815260200190815260200160002090816105489190611184565b508083838151811061055c5761055c61111f565b6020908102919091010152508061057281611244565b9150506104c8565b509392505050565b6000818152600260205260408120546001600160a01b0316806103165760405162461bcd60e51b8152602060048201526018602482015277115490cdcc8c4e881a5b9d985b1a59081d1bdad95b88125160421b6044820152606401610419565b60006001600160a01b03821661064c5760405162461bcd60e51b815260206004820152602960248201527f4552433732313a2061646472657373207a65726f206973206e6f7420612076616044820152683634b21037bbb732b960b91b6064820152608401610419565b506001600160a01b031660009081526003602052604090205490565b6106706109c3565b61067a6000610ba8565b565b60006106866109c3565b610694600780546001019055565b600061069f60075490565b90506106ab8482610a1d565b600081815260086020526040902061057a8482611184565b60606001805461032b906110e5565b60606106dc6109c3565b815183511461072d5760405162461bcd60e51b815260206004820152601b60248201527f417272617973206d757374206d6174636820696e206c656e67746800000000006044820152606401610419565b6000835167ffffffffffffffff81111561074957610749610ce8565b604051908082528060200260200182016040528015610772578160200160208202803683370190505b50905060005b845181101561057a5760006107bf8683815181106107985761079861111f565b60200260200101518684815181106107b2576107b261111f565b6020026020010151610bfa565b9050808383815181106107d4576107d461111f565b602090810291909101015250806107ea81611244565b915050610778565b6000818152600260205260409020546060906001600160a01b031661084d5760405162461bcd60e51b81526020600482015260116024820152702737b732bc34b9ba32b73a103a37b5b2b760791b6044820152606401610419565b60008281526008602052604090208054610866906110e5565b80601f0160208091040260200160405190810160405280929190818152602001828054610892906110e5565b80156108df5780601f106108b4576101008083540402835291602001916108df565b820191906000526020600020905b8154815290600101906020018083116108c257829003601f168201915b50505050509050919050565b6108f36109c3565b6001600160a01b0381166109585760405162461bcd60e51b815260206004820152602660248201527f4f776e61626c653a206e6577206f776e657220697320746865207a65726f206160448201526564647265737360d01b6064820152608401610419565b61096181610ba8565b50565b6000818152600260205260409020546001600160a01b03166109615760405162461bcd60e51b8152602060048201526018602482015277115490cdcc8c4e881a5b9d985b1a59081d1bdad95b88125160421b6044820152606401610419565b6006546001600160a01b0316331461067a5760405162461bcd60e51b815260206004820181905260248201527f4f776e61626c653a2063616c6c6572206973206e6f7420746865206f776e65726044820152606401610419565b6001600160a01b038216610a735760405162461bcd60e51b815260206004820181905260248201527f4552433732313a206d696e7420746f20746865207a65726f20616464726573736044820152606401610419565b6000818152600260205260409020546001600160a01b031615610ad85760405162461bcd60e51b815260206004820152601c60248201527f4552433732313a20746f6b656e20616c7265616479206d696e746564000000006044820152606401610419565b6000818152600260205260409020546001600160a01b031615610b3d5760405162461bcd60e51b815260206004820152601c60248201527f4552433732313a20746f6b656e20616c7265616479206d696e746564000000006044820152606401610419565b6001600160a01b038216600081815260036020908152604080832080546001019055848352600290915280822080546001600160a01b0319168417905551839291907fddf252ad1be2c89b69c2b068fc378daa952ba7f163c4a11628f55a4df523b3ef908290a45050565b600680546001600160a01b038381166001600160a01b0319831681179093556040519116919082907f8be0079c531659141344cd1fd0a4f28419497f9722a3daafe3b4186f6b6457e090600090a35050565b6000610694600780546001019055565b600060208284031215610c1c57600080fd5b81356001600160e01b031981168114610c3457600080fd5b9392505050565b600060208083528351808285015260005b81811015610c6857858101830151858201604001528201610c4c565b506000604082860101526040601f19601f8301168501019250505092915050565b600060208284031215610c9b57600080fd5b5035919050565b80356001600160a01b0381168114610cb957600080fd5b919050565b60008060408385031215610cd157600080fd5b610cda83610ca2565b946020939093013593505050565b634e487b7160e01b600052604160045260246000fd5b604051601f8201601f1916810167ffffffffffffffff81118282101715610d2757610d27610ce8565b604052919050565b600067ffffffffffffffff821115610d4957610d49610ce8565b5060051b60200190565b600067ffffffffffffffff831115610d6d57610d6d610ce8565b610d80601f8401601f1916602001610cfe565b9050828152838383011115610d9457600080fd5b828260208301376000602084830101529392505050565b600082601f830112610dbc57600080fd5b610c3483833560208501610d53565b600082601f830112610ddc57600080fd5b81356020610df1610dec83610d2f565b610cfe565b82815260059290921b84018101918181019086841115610e1057600080fd5b8286015b84811015610e5057803567ffffffffffffffff811115610e345760008081fd5b610e428986838b0101610dab565b845250918301918301610e14565b509695505050505050565b60008060408385031215610e6e57600080fd5b823567ffffffffffffffff80821115610e8657600080fd5b818501915085601f830112610e9a57600080fd5b81356020610eaa610dec83610d2f565b82815260059290921b84018101918181019089841115610ec957600080fd5b948201945b83861015610eee57610edf86610ca2565b82529482019490820190610ece565b96505086013592505080821115610f0457600080fd5b50610f1185828601610dcb565b9150509250929050565b6020808252825182820181905260009190848201906040850190845b81811015610f5357835183529284019291840191600101610f37565b50909695505050505050565b600080600060608486031215610f7457600080fd5b610f7d84610ca2565b9250610f8b60208501610ca2565b9150604084013590509250925092565b600060208284031215610fad57600080fd5b610c3482610ca2565b60008060408385031215610fc957600080fd5b610fd283610ca2565b9150602083013567ffffffffffffffff811115610fee57600080fd5b610f1185828601610dab565b6000806040838503121561100d57600080fd5b61101683610ca2565b91506020830135801515811461102b57600080fd5b809150509250929050565b6000806000806080858703121561104c57600080fd5b61105585610ca2565b935061106360208601610ca2565b925060408501359150606085013567ffffffffffffffff81111561108657600080fd5b8501601f8101871361109757600080fd5b6110a687823560208401610d53565b91505092959194509250565b600080604083850312156110c557600080fd5b6110ce83610ca2565b91506110dc60208401610ca2565b90509250929050565b600181811c908216806110f957607f821691505b60208210810361111957634e487b7160e01b600052602260045260246000fd5b50919050565b634e487b7160e01b600052603260045260246000fd5b601f82111561117f57600081815260208120601f850160051c8101602086101561115c5750805b601f850160051c820191505b8181101561117b57828155600101611168565b5050505b505050565b815167ffffffffffffffff81111561119e5761119e610ce8565b6111b2816111ac84546110e5565b84611135565b602080601f8311600181146111e757600084156111cf5750858301515b600019600386901b1c1916600185901b17855561117b565b600085815260208120601f198616915b82811015611216578886015182559484019460019091019084016111f7565b50858210156112345787850151600019600388901b60f8161c191681555b5050505050600190811b01905550565b60006001820161126457634e487b7160e01b600052601160045260246000fd5b506001019056fea26469706673582212208e6db9f41f42849cc17e5dac20e6bd18395b0d54921bfd84c11cc3ac87216add64736f6c63430008130033","linkReferences":{}},"methodIdentifiers":{"approve(address,uint256)":"095ea7b3","balanceOf(address)":"70a08231","getApproved(uint256)":"081812fc","isApprovedForAll(address,address)":"e985e9c5","issueBatchCredentials(address[],string[])":"0995f359","issueCredential(address,string)":"90c7c49c","issueSequentialCredentials(address[],string[])":"af61404a","name()":"06fdde03","owner()":"8da5cb5b","ownerOf(uint256)":"6352211e","renounceOwnership()":"715018a6","safeTransferFrom(address,address,uint256)":"42842e0e","safeTransferFrom(address,address,uint256,bytes)":"b88d4fde","setApprovalForAll(address,bool)":"a22cb465","supportsInterface(bytes4)":"01ffc9a7","symbol()":"95d89b41","tokenURI(uint256)":"c87b56dd","transferFrom(address,address,uint256)":"23b872dd","transferOwnership(address)":"f2fde38b"},"id":31}